:020000040800F2
:1000000050040020C1010008071000089D0E0008E0
:1000100005100008CD020008C11000080000000013
:100020000000000000000000000000000B100008AD
:10003000CF02000800000000091000080D100008A1
:10004000DB010008DB010008DB010008DB01000820
:10005000DB010008DB010008DB010008DB01000810
:10006000DB010008DB010008DB010008DB01000800
:10007000DB010008DB010008DB010008DB010008F0
:10008000DB010008DB010008DB010008DB010008E0
:10009000DB010008DB010008DB010008DB010008D0
:1000A000DB010008DB010008DB010008DB010008C0
:1000B000DB010008DB010008DB010008DB010008B0
:1000C000DB010008DB010008DB010008DB010008A0
:1000D000DB010008DB010008DB010008DB01000890
:1000E000DB010008DB010008DB010008DB01000880
:1000F000DB010008DB010008DB010008DB01000870
:10010000DB010008DB010008DB010008DB0100085F
:10011000DB010008DB010008DB010008DB0100084F
:10012000DB010008DB010008DB010008DB0100083F
:10013000DB010008DB010008DB010008DB0100082F
:10014000DB010008DB010008DB010008DB0100081F
:10015000DB010008DB010008DB010008DB0100080F
:10016000DB010008DB010008DB010008DB010008FF
:10017000DB010008DB010008DB01000800000000D3
:10018000DB010008DB010008DB010008DB010008DF
:10019000DB010008DB010008DB010008DB010008CF
:1001A000DB010008DB010008DB010008DFF80CD0F0
:1001B00000F07AF8004800470111000850040020C0
:1001C0000648804706480047FEE7FEE7FEE7FEE7F1
:1001D000FEE7FEE7FEE7FEE7FEE7FEE7B1100008F8
:1001E000AD0100082DE9F05F0546002092469B46D0
:1001F00088460646814640241BE02846414647463D
:10020000224600F041F853465A46C01A914110D395
:1002100011461846224600F028F82D1A67EB01080F
:100220004F4622460120002100F01FF817EB00097D
:100230004E41201EA4F10104DFDC484631462A4627
:100240004346BDE8F09FD2B201E000F8012B491E01
:10025000FBD270470022F6E710B513460A46044663
:100260001946FFF7F0FF204610BD202A04DB203A94
:1002700000FA02F1002070479140C2F1200320FAF9
:1002800003F3194390407047202A04DB203A21FAF7
:1002900002F00021704721FA02F3D040C2F120029F
:1002A0009140084319467047064C074D06E0E06848
:1002B00040F0010394E8070098471034AC42F6D3AD
:1002C000FFF778FF4C1100086C110008FEE770473B
:1002D00072B6FEE730B5D1E901231A43D1E90335FF
:1002E0002B431A434B690C681A438B691A43D1E9B3
:1002F0000735012C496A046807D01A432A436FF373
:100300000E040A43224302600AE024F4F8442B431B
:1003100021430B43416803606FF30E010A434260BF
:10032000002030BD426942EA41014161002070472E
:10033000F8B514460546D1E9000210438A686FF00B
:100340001F03C96803EB421242EA412108430090AF
:10035000286100F0F7F9064609E0601C07D024B1D7
:1003600000F0F0F9801BA04201D90320F8BDA86974
:100370008006F2D40020F8BDF0B56FF00F05D1E98A
:10038000003405EB04145B1E23432E018C682F03FD
:1003900006EB042423434FEA054C0C8A8E8ACD6871
:1003A000097E4FF07F4E07EB04440CEB06560EEB34
:1003B0000161012A0CD082683F1107EB05352B4300
:1003C0002343334302F070420B43134383600FE037
:1003D0008768084A17402A03A2F580523243C5684D
:1003E0003A43234305F070450B432B438260C360BF
:1003F0000020F0BDFF0F0FFF70B5044600F0A2F91A
:100400000546601C02D004480078044400F09AF9C4
:10041000401BA042FAD370BD080000202DE9F04136
:1004200086B014216846FFF715FF3148016800299E
:100430005BD14FF00108C0F800802E48002401680D
:1004400041F0010101600068022500F00100059003
:1004500040F2FF60CDE9000502AA03260C2782E8DE
:10046000D0006946244800F055F84FF63F00CDE92A
:10047000000502AA694682E8D000204800F04AF848
:1004800002AA694682E8D000CDE900851C4800F048
:1004900041F848F23310CDE9000502AA694682E826
:1004A000D000184800F036F84FF68370CDE900050B
:1004B00002AA694682E8D000134800F02BF84FF6F4
:1004C000C070CDE9000502AA694682E8D0000F4855
:1004D00000F020F84CF20370CDE9000502AA69464D
:1004E00082E8D0000A4800F015F806B0BDE8F081B7
:1004F0000000002038380240002002400014024072
:10050000000802400018024000100240001C024097
:10051000000C02402DE9F84FDFF8F4A1002201247D
:100520000AF1040B03254FF00F090BF1040E00BF75
:100530000B6804FA02F63340B3426FD10F7907F02B
:100540000307012F01D0022F16D187684FEA420816
:1005500005FA08FC27EA0C07D1F80CC00CFA08FCD5
:100560004CEA070CC0F808C04768B7430E79C6F3D9
:10057000001696403E4346600E79F643B6070AD011
:10058000C7684FEA420C05FA0CF6B7438E6806FAC4
:100590000CF63E43C6600E7906F00306022E10D11B
:1005A000D60800EB8608D8F8206057074FEAD76CCA
:1005B00009FA0CF7BE430F6907FA0CF73743C8F87E
:1005C000207006684FEA420C05FA0CF7BE430F791B
:1005D00007F0030707FA0CF7374307604E68F60089
:1005E0001CD54C4E376847F480473760366822F098
:1005F000030706F480460096474E07EB060CDCF82E
:10060000086897073F0F09FA07F826EA0806DFF897
:100610000C81404503D14FF0000841E072E0DFF863
:100620000081404502D14FF0010839E0DFF8F48045
:10063000404502D14FF0020832E0DFF8EC8040453F
:1006400002D14FF003082BE0DFF8E080404502D1F3
:100650004FF0040824E0DFF8D880404502D14FF085
:1006600005081DE0DFF8CC80404502D14FF00608B8
:1006700016E0DFF8C480404502D14FF007080FE0D4
:10068000DFF8B880404502D14FF0080808E0DFF8F5
:10069000B080404502D14FF0090801E04FF00A0850
:1006A00008FA07F848EA0608CCF80888DAF8006083
:1006B0005746D1F804C09E435FEACC3C00D51E43A8
:1006C0003E60DBF800605F46D1F804C09E435FEAFD
:1006D0008C3C00D51E433E60DEF800607746D1F8C2
:1006E00004C09E435FEACC2C00D51E433E60084FF9
:1006F0000C373E68D1F804C09E435FEA8C2C00D5CD
:100700001E433E60521C102AFFF412AFBDE8F88F62
:10071000003C0140443802400030014000000240EB
:100720000004024000080240000C02400010024099
:100730000014024000180240001C02400020024049
:100740000024024001488068704700000800002033
:1007500002488168027811448160704708000020D7
:100760000B4810B5016841F400710160016841F463
:1007700080610160016841F480710160032000F034
:1007800061F8002000F006F800F024F8002010BD09
:10079000003C024070B50D4D04464FF47A71287844
:1007A000B1FBF0F00A490968B1FBF0F000F062FB20
:1007B00048B9102C07D200222146501E00F022F822
:1007C00000206C6070BD012070BD0000080000209A
:1007D000140000200A4808B5016841F48041016016
:1007E000006800F4804000900548001F016841F057
:1007F00080510160006800F08050009008BD00004A
:1008000044380240F0B40E4B1B680C46C3F302237D
:10081000C3F10705042D00D90425191D072901D2AC
:10082000002300E0DB1E012606FA05F1491E2140E7
:1008300099409E40761E16403143F0BC00F041BC0A
:100840000CED00E0064900F0070208684FF6FF03D0
:10085000184040EA0220034A104308607047000035
:100860000CED00E00000FA052DE9F8431748016897
:1008700041F0805101600068154F00F08050012662
:1008800000903E64FFF75EFF05464FF47A78114C06
:1008900005E000BFFFF756FF401B40450DD86068DC
:1008A000C003F7D57E64FFF74DFF0546464607E0D7
:1008B000FFF748FF401BB04202D90320BDE8F88390
:1008C00060688003F4D50020F8E70000403802405B
:1008D00000000E42007000402DE9F0470E46050072
:1008E00065D0DFF81481D8F80000F7B200F00F00EF
:1008F000B04207D288F80070D8F8000000F00F006E
:10090000B04254D128683D4C810712D5400703D529
:10091000206840F4E05020602878000703D5206864
:1009200040F4604020602068A96820F0F00008438F
:1009300020602878C0072DD0304968680839012820
:1009400012D0022813D0032811D009688907002982
:100950002DDA216821F0030101432160FFF7F2FE47
:10096000814641F2883A0EE009688903EFE7096899
:100970008901ECE7FFF7E6FEA0EB0901514502D93A
:100980000320BDE8F0872068696800F00C00B0EB38
:10099000810FEFD1D8F80010404601F00F01B142AD
:1009A00007D90770006800F00F00B04201D00120A5
:1009B000E7E72878400705D52068E96820F4E0508B
:1009C000084320602878000706D52068296920F4AC
:1009D000604040EAC100206000F018F82168084A31
:1009E000C1F30311515CC84006490860064800681D
:1009F000FFF7D0FE0020C4E7003C02400838024068
:100A00003C110008140000200C000020154810B50F
:100A1000006810F00C02144813D01449042A0FD0B7
:100A2000082A0ED10F4C241F2268236802F03F02CF
:100A30005B0207D52068C0F38810A0FB010106E027
:100A4000084610BD2168C1F38811A1FB00010023F5
:100A5000FFF7C8FB2168C1F30141491C4900B0FB05
:100A6000F1F010BD083802400024F40040787D0108
:100A70002DE9F84F04006ED02078DFF84C93C007C2
:100A8000A9F104054AD009F104000168C1F381010C
:100A9000012908D00068C0F3810002280AD1D9F8E2
:100AA0000000400206D52868800337D5606800281A
:100AB000E1D033E06068B0F5803F10D0B0F5A02FF2
:100AC000286810D020F480302860286820F4802026
:100AD00028606068A8B1FFF735FE06460DE028687B
:100AE00040F48030F4E740F480202860F7E700BF4E
:100AF000FFF728FE801B642873D828688003F7D589
:100B00000CE0FFF71FFE064605E000BFFFF71AFEE8
:100B1000801B6428F0D828688003F7D42078DFF899
:100B2000AC8280074FF0000A3ED5A748001D01683F
:100B300011F00C0F08D00068C0F3810002280BD11F
:100B4000D9F80000400207D42868800716D5E0686D
:100B5000012800D112E033E1E068B8B10120C8F803
:100B60000000FFF7EFFD064605E000BFFFF7EAFDD6
:100B7000801B0228C0D828688007F7D5286821691B
:100B800020F0F80040EAC10028600DE0C8F800A09D
:100B9000FFF7D8FD064604E0FFF7D4FD801B0228CE
:100BA0001FD828688007F7D42078000722D5864F01
:100BB00087486169703771B101210160FFF7C2FD9B
:100BC000064604E0FFF7BEFD801B022809D83868FE
:100BD0008007F7D50EE0C0F800A0FFF7B3FD06468A
:100BE00005E082E0FFF7AEFD801B02287DD8386863
:100BF0008007F7D42078400768D5DFF8CCB100270C
:100C00000BF13C0BDBF80000C0000BD4DBF800104C
:100C100041F08051CBF80010DBF80000012700F014
:100C2000805000906B4E3068C00510D4306840F49E
:100C300080703060FFF786FD009005E0FFF782FDD1
:100C40000099401A022850D83068C005F6D55E4E8B
:100C5000A0686C3601280FD00528306810D020F02D
:100C600001003060306820F004003060A068B8B146
:100C7000FFF768FD00900FE0306840F00100F4E7F6
:100C800040F004003060F7E7FFF75CFD0099411A7F
:100C900041F28830814266D830688007F4D50EE092
:100CA000FFF750FD009007E0FFF74CFD0099411A57
:100CB00041F28830814256D830688007F4D42FB191
:100CC000DBF8001021F08051CBF80010A069C8B308
:100CD0003D49091D0968C1F3810102294AD0022852
:100CE000504607D0C8F8600000E03CE0FFF72AFD5E
:100CF00004463BE04746C8F86000FFF723FD064680
:100D000005E000BFFFF71EFD801B02282BD82868D6
:100D10008001F7D4D4E907010843A16A2E4A4908A3
:100D200002EB0141626A41EA8211084394F82C10F7
:100D300040EA0161C9F8001001203866FFF702FDA2
:100D4000044606E03EE000BFFFF7FCFC001B022863
:100D500009D828688001F7D534E000BFFFF7F2FC1E
:100D6000001B022802D90320BDE8F88F2868800103
:100D7000F4D427E00128F7D0D9F80000E26900F4A4
:100D8000800191421CD1226A00F03F01914217D1AB
:100D900047F6C071626A0140B1EB821F10D1A26AAE
:100DA0004FF0FF3300F4403103EB5202B1EB024F3E
:100DB00006D194F82C1000F07060B0EB016F01D0F8
:100DC0000120D1E70020CFE704380240000047426D
:100DD000800E4742007000400000FFFF70B50D46D6
:100DE000040003D094F82C0010B107E0012070BD7E
:100DF000002084F82D00204600F011F8022084F82D
:100E00002C00211D2068FFF765FAD4E9000229466D
:100E1000FFF7B2FA012084F82C00002070BDFFF724
:100E2000FDBA10B5044690F82C00022809D0022023
:100E300084F82C002068FFF775FA012084F82C0054
:100E4000002010BD70B5044690F82C000D46022815
:100E50000DD0022084F82C002068FFF769FA28687A
:100E6000022805D05FF0010084F82C00002070BD3E
:100E70000520F9E710B5401EB0F1807F01D30120B5
:100E800010BD4FF0E02460610F21601700F019F9E8
:100E90000020A06107202061002010BDFEE70000B7
:100EA0002DE9F0478CB01C2104A8FFF7D3F9314895
:100EB00000242F4901258460C0E900154FF0040982
:100EC0002021C0E90391402141614FF4C071C0E984
:100ED0000614E90201624900416249008162022769
:100EE0000720CDE90470052006904FF00308062086
:100EF000CDE90887079004A91E480A97FFF76EFFFF
:100F000008B1FFF7E5F90826CDE90056CDE902540E
:100F10004FF6FF7A524669461648FFF793FF0120C5
:100F2000FFF76AFACDE90254CDE9007652466946E8
:100F30001048FFF787FFCDE90086CDE902645246ED
:100F400069460C48FFF77EFF4FF40C70CDE9025064
:100F5000CDE90096524669460648FFF773FF40F216
:100F6000AB210448FFF75DFF0CB0BDE8F08700003F
:100F7000400100A018000020214808B5016841F098
:100F800004010160016801F004010091016841F46D
:100F900080710160016801F480710091016841F085
:100FA00020010160016801F020010091016841F019
:100FB00080010160016801F080010091016841F049
:100FC00040010160016801F040010091016841F0B9
:100FD00010010160016801F010010091016841F009
:100FE00008010160016801F008010091016841F009
:100FF00001010160006800F00100009008BD0000E0
:1010000030380240FEE7FEE770477047FFF7A0BBAD
:1010100030B593B030216846FFF71CF914210CA8B5
:10102000FFF718F920480025016841F08051016060
:10103000006800F0805011901C48016841F4404164
:1010400001600068022400F44040119001200090EB
:10105000000401908001CDE90640192008904FF46A
:10106000B470CDE9090404200B906846FFF700FD39
:1010700008B172B6FEE7FFF7F7FB08B172B6FEE7FC
:101080000CA90F2081E831004FF4A0500F904FF4CD
:101090008050109005210CA8FFF71EFC002801D0FD
:1010A00072B6FEE713B030BD403802400070004019
:1010B0000248016841F470010160704788ED00E06A
:1010C000FEE70907090E002804DB00F1E02080F8A4
:1010D0000014704700F00F0000F1E02080F8141DAC
:1010E000704702E008C8121F08C1002AFAD17047F1
:1010F0007047002001E001C1121F002AFBD1704798
:10110000FFF72EFBFFF784FFFFF736FFFFF7C8FE60
:10111000094900204FF4800241F82000401C904211
:10112000FADB002051F82030834203D1401C90426A
:10113000F8DBFEE7FEE70000000000D00000000042
:101140000000000001020304060708096C110008F2
:101150000000002018000000E210000884110008C0
:101160001800002038040000F21000080000000001
:10117000000000000100000010000000000000005E
:041180000024F40053
:04000005080001AD41
:00000001FF
